{
  "_format": "hh-sol-artifact-1",
  "contractName": "Escrow",
  "sourceName": "contracts/Escrow.sol",
  "abi": [
    {
      "anonymous": false,
      "inputs": [
        {
          "indexed": false,
          "internalType": "uint256",
          "name": "",
          "type": "uint256"
        }
      ],
      "name": "Approved",
      "type": "event"
    },
    {
      "anonymous": false,
      "inputs": [
        {
          "indexed": false,
          "internalType": "uint256",
          "name": "",
          "type": "uint256"
        }
      ],
      "name": "Created",
      "type": "event"
    },
    {
      "inputs": [
        {
          "internalType": "uint256",
          "name": "id",
          "type": "uint256"
        }
      ],
      "name": "approve",
      "outputs": [],
      "stateMutability": "nonpayable",
      "type": "function"
    },
    {
      "inputs": [
        {
          "internalType": "uint256",
          "name": "",
          "type": "uint256"
        }
      ],
      "name": "contracts",
      "outputs": [
        {
          "internalType": "uint256",
          "name": "id",
          "type": "uint256"
        },
        {
          "internalType": "address",
          "name": "depositor",
          "type": "address"
        },
        {
          "internalType": "address",
          "name": "arbiter",
          "type": "address"
        },
        {
          "internalType": "address",
          "name": "beneficiary",
          "type": "address"
        },
        {
          "internalType": "uint256",
          "name": "amount",
          "type": "uint256"
        },
        {
          "internalType": "bool",
          "name": "isApproved",
          "type": "bool"
        }
      ],
      "stateMutability": "view",
      "type": "function"
    },
    {
      "inputs": [
        {
          "internalType": "address",
          "name": "arbiter",
          "type": "address"
        },
        {
          "internalType": "address",
          "name": "beneficiary",
          "type": "address"
        }
      ],
      "name": "create",
      "outputs": [],
      "stateMutability": "payable",
      "type": "function"
    },
    {
      "inputs": [],
      "name": "getContracts",
      "outputs": [
        {
          "components": [
            {
              "internalType": "uint256",
              "name": "id",
              "type": "uint256"
            },
            {
              "internalType": "address",
              "name": "depositor",
              "type": "address"
            },
            {
              "internalType": "address",
              "name": "arbiter",
              "type": "address"
            },
            {
              "internalType": "address",
              "name": "beneficiary",
              "type": "address"
            },
            {
              "internalType": "uint256",
              "name": "amount",
              "type": "uint256"
            },
            {
              "internalType": "bool",
              "name": "isApproved",
              "type": "bool"
            }
          ],
          "internalType": "struct Escrow.Contract[]",
          "name": "",
          "type": "tuple[]"
        }
      ],
      "stateMutability": "view",
      "type": "function"
    }
  ],
  "bytecode": "0x6080604052600060015534801561001557600080fd5b50610df4806100256000396000f3fe60806040526004361061003f5760003560e01c80633e68680a14610044578063474da79a14610060578063b759f954146100a2578063c3a2a93a146100cb575b600080fd5b61005e6004803603810190610059919061081a565b6100f6565b005b34801561006c57600080fd5b5061008760048036038101906100829190610890565b6102f1565b604051610099969594939291906108f6565b60405180910390f35b3480156100ae57600080fd5b506100c960048036038101906100c49190610890565b6103aa565b005b3480156100d757600080fd5b506100e0610627565b6040516100ed9190610aae565b60405180910390f35b60006040518060c0016040528060015481526020013373ffffffffffffffffffffffffffffffffffffffff1681526020018473ffffffffffffffffffffffffffffffffffffffff1681526020018373ffffffffffffffffffffffffffffffffffffffff1681526020013481526020016000151581525090806001815401808255809150506001900390600052602060002090600602016000909190919091506000820151816000015560208201518160010160006101000a81548173ffffffffffffffffffffffffffffffffffffffff021916908373ffffffffffffffffffffffffffffffffffffffff16021790555060408201518160020160006101000a81548173ffffffffffffffffffffffffffffffffffffffff021916908373ffffffffffffffffffffffffffffffffffffffff16021790555060608201518160030160006101000a81548173ffffffffffffffffffffffffffffffffffffffff021916908373ffffffffffffffffffffffffffffffffffffffff1602179055506080820151816004015560a08201518160050160006101000a81548160ff02191690831515021790555050507f06acbfb32bcf8383f3b0a768b70ac9ec234ea0f2d3b9c77fa6a2de69b919aad1600160008154809291906102d490610aff565b919050556040516102e59190610b47565b60405180910390a15050565b6000818154811061030157600080fd5b90600052602060002090600602016000915090508060000154908060010160009054906101000a900473ffffffffffffffffffffffffffffffffffffffff16908060020160009054906101000a900473ffffffffffffffffffffffffffffffffffffffff16908060030160009054906101000a900473ffffffffffffffffffffffffffffffffffffffff16908060040154908060050160009054906101000a900460ff16905086565b60008054905081106103f1576040517f08c379a00000000000000000000000000000000000000000000000000000000081526004016103e890610bbf565b60405180910390fd5b600080828154811061040657610405610bdf565b5b906000526020600020906006020190508060020160009054906101000a900473ffffffffffffffffffffffffffffffffffffffff1673ffffffffffffffffffffffffffffffffffffffff163373ffffffffffffffffffffffffffffffffffffffff16146104a8576040517f08c379a000000000000000000000000000000000000000000000000000000000815260040161049f90610c5a565b60405180910390fd5b8060050160009054906101000a900460ff16156104fa576040517f08c379a00000000000000000000000000000000000000000000000000000000081526004016104f190610cec565b60405180910390fd5b60018160050160006101000a81548160ff02191690831515021790555060008160030160009054906101000a900473ffffffffffffffffffffffffffffffffffffffff1673ffffffffffffffffffffffffffffffffffffffff16826004015460405161056590610d3d565b60006040518083038185875af1925050503d80600081146105a2576040519150601f19603f3d011682016040523d82523d6000602084013e6105a7565b606091505b50509050806105eb576040517f08c379a00000000000000000000000000000000000000000000000000000000081526004016105e290610d9e565b60405180910390fd5b7f3ad93af63cb7967b23e4fb500b7d7d28b07516325dcf341f88bebf959d82c1cb8360405161061a9190610b47565b60405180910390a1505050565b60606000805480602002602001604051908101604052809291908181526020016000905b828210156107ae57838290600052602060002090600602016040518060c0016040529081600082015481526020016001820160009054906101000a900473ffffffffffffffffffffffffffffffffffffffff1673ffffffffffffffffffffffffffffffffffffffff1673ffffffffffffffffffffffffffffffffffffffff1681526020016002820160009054906101000a900473ffffffffffffffffffffffffffffffffffffffff1673ffffffffffffffffffffffffffffffffffffffff1673ffffffffffffffffffffffffffffffffffffffff1681526020016003820160009054906101000a900473ffffffffffffffffffffffffffffffffffffffff1673ffffffffffffffffffffffffffffffffffffffff1673ffffffffffffffffffffffffffffffffffffffff168152602001600482015481526020016005820160009054906101000a900460ff1615151515815250508152602001906001019061064b565b50505050905090565b600080fd5b600073ffffffffffffffffffffffffffffffffffffffff82169050919050565b60006107e7826107bc565b9050919050565b6107f7816107dc565b811461080257600080fd5b50565b600081359050610814816107ee565b92915050565b60008060408385031215610831576108306107b7565b5b600061083f85828601610805565b925050602061085085828601610805565b9150509250929050565b6000819050919050565b61086d8161085a565b811461087857600080fd5b50565b60008135905061088a81610864565b92915050565b6000602082840312156108a6576108a56107b7565b5b60006108b48482850161087b565b91505092915050565b6108c68161085a565b82525050565b6108d5816107dc565b82525050565b60008115159050919050565b6108f0816108db565b82525050565b600060c08201905061090b60008301896108bd565b61091860208301886108cc565b61092560408301876108cc565b61093260608301866108cc565b61093f60808301856108bd565b61094c60a08301846108e7565b979650505050505050565b600081519050919050565b600082825260208201905092915050565b6000819050602082019050919050565b61098c8161085a565b82525050565b61099b816107dc565b82525050565b6109aa816108db565b82525050565b60c0820160008201516109c66000850182610983565b5060208201516109d96020850182610992565b5060408201516109ec6040850182610992565b5060608201516109ff6060850182610992565b506080820151610a126080850182610983565b5060a0820151610a2560a08501826109a1565b50505050565b6000610a3783836109b0565b60c08301905092915050565b6000602082019050919050565b6000610a5b82610957565b610a658185610962565b9350610a7083610973565b8060005b83811015610aa1578151610a888882610a2b565b9750610a9383610a43565b925050600181019050610a74565b5085935050505092915050565b60006020820190508181036000830152610ac88184610a50565b905092915050565b7f4e487b7100000000000000000000000000000000000000000000000000000000600052601160045260246000fd5b6000610b0a8261085a565b91507fffffffffffffffffffffffffffffffffffffffffffffffffffffffffffffffff8203610b3c57610b3b610ad0565b5b600182019050919050565b6000602082019050610b5c60008301846108bd565b92915050565b600082825260208201905092915050565b7f696e76616c696420494400000000000000000000000000000000000000000000600082015250565b6000610ba9600a83610b62565b9150610bb482610b73565b602082019050919050565b60006020820190508181036000830152610bd881610b9c565b9050919050565b7f4e487b7100000000000000000000000000000000000000000000000000000000600052603260045260246000fd5b7f796f7520617265206e6f74207468652061726269746572000000000000000000600082015250565b6000610c44601783610b62565b9150610c4f82610c0e565b602082019050919050565b60006020820190508181036000830152610c7381610c37565b9050919050565b7f657363726f7720636f6e74726163742068617320616c7265616479206265656e60008201527f20617070726f7665640000000000000000000000000000000000000000000000602082015250565b6000610cd6602983610b62565b9150610ce182610c7a565b604082019050919050565b60006020820190508181036000830152610d0581610cc9565b9050919050565b600081905092915050565b50565b6000610d27600083610d0c565b9150610d3282610d17565b600082019050919050565b6000610d4882610d1a565b9150819050919050565b7f6661696c656420746f2073656e64204574686572000000000000000000000000600082015250565b6000610d88601483610b62565b9150610d9382610d52565b602082019050919050565b60006020820190508181036000830152610db781610d7b565b905091905056fea264697066735822122011a96587a2a27cb98ade7aeef4e61c7e3e4b608f33ced09b5f833a49628a04ae64736f6c63430008110033",
  "linkReferences": {},
  "deployedLinkReferences": {}
}